{"contracts/OffchainResolver.sol":{"OffchainResolver":{"abi":[{"inputs":[{"internalType":"string","name":"_url","type":"string"},{"internalType":"address[]","name":"_signers","type":"address[]"}],"stateMutability":"nonpayable","type":"constructor"},{"inputs":[],"name":"ECDSAInvalidSignature","type":"error"},{"inputs":[{"internalType":"uint256","name":"length","type":"uint256"}],"name":"ECDSAInvalidSignatureLength","type":"error"},{"inputs":[{"internalType":"bytes32","name":"s","type":"bytes32"}],"name":"ECDSAInvalidSignatureS","type":"error"},{"inputs":[{"internalType":"address","name":"sender","type":"address"},{"internalType":"string[]","name":"urls","type":"string[]"},{"internalType":"bytes","name":"callData","type":"bytes"},{"internalType":"bytes4","name":"callbackFunction","type":"bytes4"},{"internalType":"bytes","name":"extraData","type":"bytes"}],"name":"OffchainLookup","type":"error"},{"anonymous":false,"inputs":[{"indexed":false,"internalType":"address[]","name":"signers","type":"address[]"}],"name":"NewSigners","type":"event"},{"inputs":[{"internalType":"address","name":"target","type":"address"},{"internalType":"uint64","name":"expires","type":"uint64"},{"internalType":"bytes","name":"request","type":"bytes"},{"internalType":"bytes","name":"result","type":"bytes"}],"name":"makeSignatureHash","outputs":[{"internalType":"bytes32","name":"","type":"bytes32"}],"stateMutability":"pure","type":"function"},{"inputs":[{"internalType":"bytes","name":"name","type":"bytes"},{"internalType":"bytes","name":"data","type":"bytes"}],"name":"resolve","outputs":[{"internalType":"bytes","name":"","type":"bytes"}],"stateMutability":"view","type":"function"},{"inputs":[{"internalType":"bytes","name":"response","type":"bytes"},{"internalType":"bytes","name":"extraData","type":"bytes"}],"name":"resolveWithProof","outputs":[{"internalType":"bytes","name":"","type":"bytes"}],"stateMutability":"view","type":"function"},{"inputs":[{"internalType":"address","name":"","type":"address"}],"name":"signers","outputs":[{"internalType":"bool","name":"","type":"bool"}],"stateMutability":"view","type":"function"},{"inputs":[{"internalType":"bytes4","name":"interfaceID","type":"bytes4"}],"name":"supportsInterface","outputs":[{"internalType":"bool","name":"","type":"bool"}],"stateMutability":"view","type":"function"},{"inputs":[],"name":"url","outputs":[{"internalType":"string","name":"","type":"string"}],"stateMutability":"view","type":"function"}],"devdoc":{"errors":{"ECDSAInvalidSignature()":[{"details":"The signature derives the `address(0)`."}],"ECDSAInvalidSignatureLength(uint256)":[{"details":"The signature has an invalid length."}],"ECDSAInvalidSignatureS(bytes32)":[{"details":"The signature has an S value that is in the upper half order."}]},"kind":"dev","methods":{"resolve(bytes,bytes)":{"params":{"data":"The ABI encoded data for the underlying resolution function (Eg, addr(bytes32), text(bytes32,string), etc).","name":"The DNS-encoded name to resolve."},"returns":{"_0":"The return data, ABI encoded identically to the underlying function."}}},"version":1},"evm":{"bytecode":{"linkReferences":{},"object":"60806040523480156200001157600080fd5b5060405162001e9c38038062001e9c8339818101604052810190620000379190620003ed565b8160009081620000489190620006bd565b5060005b8151811015620000d8576001806000848481518110620000715762000070620007a4565b5b602002602001015173ffffffffffffffffffffffffffffffffffffffff1673ffffffffffffffffffffffffffffffffffffffff16815260200190815260200160002060006101000a81548160ff02191690831515021790555080806001019150506200004c565b507fab0b9cc3a46b568cb08d985497cde8ab7e18892d01f58db7dc7f0d2af859b2d7816040516200010a9190620008a1565b60405180910390a15050620008c5565b6000604051905090565b600080fd5b600080fd5b600080fd5b600080fd5b6000601f19601f8301169050919050565b7f4e487b7100000000000000000000000000000000000000000000000000000000600052604160045260246000fd5b620001838262000138565b810181811067ffffffffffffffff82111715620001a557620001a462000149565b5b80604052505050565b6000620001ba6200011a565b9050620001c8828262000178565b919050565b600067ffffffffffffffff821115620001eb57620001ea62000149565b5b620001f68262000138565b9050602081019050919050565b60005b838110156200022357808201518184015260208101905062000206565b60008484015250505050565b6000620002466200024084620001cd565b620001ae565b90508281526020810184848401111562000265576200026462000133565b5b6200027284828562000203565b509392505050565b600082601f8301126200029257620002916200012e565b5b8151620002a48482602086016200022f565b91505092915050565b600067ffffffffffffffff821115620002cb57620002ca62000149565b5b602082029050602081019050919050565b600080fd5b600073ffffffffffffffffffffffffffffffffffffffff82169050919050565b60006200030e82620002e1565b9050919050565b620003208162000301565b81146200032c57600080fd5b50565b600081519050620003408162000315565b92915050565b60006200035d6200035784620002ad565b620001ae565b90508083825260208201905060208402830185811115620003835762000382620002dc565b5b835b81811015620003b057806200039b88826200032f565b84526020840193505060208101905062000385565b5050509392505050565b600082601f830112620003d257620003d16200012e565b5b8151620003e484826020860162000346565b91505092915050565b6000806040838503121562000407576200040662000124565b5b600083015167ffffffffffffffff81111562000428576200042762000129565b5b62000436858286016200027a565b925050602083015167ffffffffffffffff8111156200045a576200045962000129565b5b6200046885828601620003ba565b9150509250929050565b600081519050919050565b7f4e487b7100000000000000000000000000000000000000000000000000000000600052602260045260246000fd5b60006002820490506001821680620004c557607f821691505b602082108103620004db57620004da6200047d565b5b50919050565b60008190508160005260206000209050919050565b60006020601f8301049050919050565b600082821b905092915050565b600060088302620005457fffffffffffffffffffffffffffffffffffffffffffffffffffffffffffffffff8262000506565b62000551868362000506565b95508019841693508086168417925050509392505050565b6000819050919050565b6000819050919050565b60006200059e62000598620005928462000569565b62000573565b62000569565b9050919050565b6000819050919050565b620005ba836200057d565b620005d2620005c982620005a5565b84845462000513565b825550505050565b600090565b620005e9620005da565b620005f6818484620005af565b505050565b5b818110156200061e5762000612600082620005df565b600181019050620005fc565b5050565b601f8211156200066d576200063781620004e1565b6200064284620004f6565b8101602085101562000652578190505b6200066a6200066185620004f6565b830182620005fb565b50505b505050565b600082821c905092915050565b6000620006926000198460080262000672565b1980831691505092915050565b6000620006ad83836200067f565b9150826002028217905092915050565b620006c88262000472565b67ffffffffffffffff811115620006e457620006e362000149565b5b620006f08254620004ac565b620006fd82828562000622565b600060209050601f83116001811462000735576000841562000720578287015190505b6200072c85826200069f565b8655506200079c565b601f1984166200074586620004e1565b60005b828110156200076f5784890151825560018201915060208501945060208101905062000748565b868310156200078f57848901516200078b601f8916826200067f565b8355505b6001600288020188555050505b505050505050565b7f4e487b7100000000000000000000000000000000000000000000000000000000600052603260045260246000fd5b600081519050919050565b600082825260208201905092915050565b6000819050602082019050919050565b6200080a8162000301565b82525050565b60006200081e8383620007ff565b60208301905092915050565b6000602082019050919050565b60006200084482620007d3565b620008508185620007de565b93506200085d83620007ef565b8060005b838110156200089457815162000878888262000810565b975062000885836200082a565b92505060018101905062000861565b5085935050505092915050565b60006020820190508181036000830152620008bd818462000837565b905092915050565b6115c780620008d56000396000f3fe608060405234801561001057600080fd5b50600436106100625760003560e01c806301ffc9a7146100675780631dcfea09146100975780635600f04f146100c7578063736c0d5b146100e55780639061b92314610115578063f4d4d2f814610145575b600080fd5b610081600480360381019061007c9190610a06565b610175565b60405161008e9190610a4e565b60405180910390f35b6100b160048036038101906100ac9190610c4d565b6101ef565b6040516100be9190610d05565b60405180910390f35b6100cf610207565b6040516100dc9190610d9f565b60405180910390f35b6100ff60048036038101906100fa9190610dc1565b610295565b60405161010c9190610a4e565b60405180910390f35b61012f600480360381019061012a9190610e4e565b6102b5565b60405161013c9190610f24565b60405180910390f35b61015f600480360381019061015a9190610e4e565b610480565b60405161016c9190610f24565b60405180910390f35b60007f9061b923000000000000000000000000000000000000000000000000000000007bffffffffffffffffffffffffffffffffffffffffffffffffffffffff1916827bffffffffffffffffffffffffffffffffffffffffffffffffffffffff191614806101e857506101e78261052e565b5b9050919050565b60006101fd85858585610598565b9050949350505050565b6000805461021490610f75565b80601f016020809104026020016040519081016040528092919081815260200182805461024090610f75565b801561028d5780601f106102625761010080835404028352916020019161028d565b820191906000526020600020905b81548152906001019060200180831161027057829003601f168201915b505050505081565b60016020528060005260406000206000915054906101000a900460ff1681565b60606000639061b92360e01b868686866040516024016102d89493929190610fd3565b604051602081830303815290604052907bffffffffffffffffffffffffffffffffffffffffffffffffffffffff19166020820180517bffffffffffffffffffffffffffffffffffffffffffffffffffffffff838183161783525050505090506000600167ffffffffffffffff81111561035457610353610b22565b5b60405190808252806020026020018201604052801561038757816020015b60608152602001906001900390816103725790505b5090506000805461039790610f75565b80601f01602080910402602001604051908101604052809291908181526020018280546103c390610f75565b80156104105780601f106103e557610100808354040283529160200191610410565b820191906000526020600020905b8154815290600101906020018083116103f357829003601f168201915b5050505050816000815181106104295761042861100e565b5b602002602001018190525030818363f4d4d2f860e01b856040517f556f1830000000000000000000000000000000000000000000000000000000008152600401610477959493929190611167565b60405180910390fd5b6060600080610491858589896105df565b91509150600160008373ffffffffffffffffffffffffffffffffffffffff1673ffffffffffffffffffffffffffffffffffffffff16815260200190815260200160002060009054906101000a900460ff16610521576040517f08c379a000000000000000000000000000000000000000000000000000000000815260040161051890611241565b60405180910390fd5b8092505050949350505050565b60007f01ffc9a7000000000000000000000000000000000000000000000000000000007bffffffffffffffffffffffffffffffffffffffffffffffffffffffff1916827bffffffffffffffffffffffffffffffffffffffffffffffffffffffff1916149050919050565b60008484848051906020012084805190602001206040516020016105bf9493929190611357565b604051602081830303815290604052805190602001209050949350505050565b60006060600080600086868101906105f791906113b0565b925092509250600061065861065230858d8d8080601f016020809104026020016040519081016040528093929190818152602001838380828437600081840152601f19601f8201169050808301925050505050505088610598565b836106ba565b9050428367ffffffffffffffff1610156106a7576040517f08c379a000000000000000000000000000000000000000000000000000000000815260040161069e906114ad565b60405180910390fd5b8084955095505050505094509492505050565b6000806000806106ca86866106e6565b9250925092506106da8282610742565b82935050505092915050565b6000806000604184510361072b5760008060006020870151925060408701519150606087015160001a905061071d888285856108a6565b95509550955050505061073b565b60006002855160001b9250925092505b9250925092565b60006003811115610756576107556114cd565b5b826003811115610769576107686114cd565b5b03156108a25760016003811115610783576107826114cd565b5b826003811115610796576107956114cd565b5b036107cd576040517ff645eedf00000000000000000000000000000000000000000000000000000000815260040160405180910390fd5b600260038111156107e1576107e06114cd565b5b8260038111156107f4576107f36114cd565b5b03610839578060001c6040517ffce698f70000000000000000000000000000000000000000000000000000000081526004016108309190611515565b60405180910390fd5b60038081111561084c5761084b6114cd565b5b82600381111561085f5761085e6114cd565b5b036108a157806040517fd78bce0c0000000000000000000000000000000000000000000000000000000081526004016108989190610d05565b60405180910390fd5b5b5050565b60008060007f7fffffffffffffffffffffffffffffff5d576e7357a4501ddfe92f46681b20a08460001c11156108e6576000600385925092509250610990565b60006001888888886040516000815260200160405260405161090b949392919061154c565b6020604051602081039080840390855afa15801561092d573d6000803e3d6000fd5b505050602060405103519050600073ffffffffffffffffffffffffffffffffffffffff168173ffffffffffffffffffffffffffffffffffffffff160361098157600060016000801b93509350935050610990565b8060008060001b935093509350505b9450945094915050565b6000604051905090565b600080fd5b600080fd5b60007fffffffff0000000000000000000000000000000000000000000000000000000082169050919050565b6109e3816109ae565b81146109ee57600080fd5b50565b600081359050610a00816109da565b92915050565b600060208284031215610a1c57610a1b6109a4565b5b6000610a2a848285016109f1565b91505092915050565b60008115159050919050565b610a4881610a33565b82525050565b6000602082019050610a636000830184610a3f565b92915050565b600073ffffffffffffffffffffffffffffffffffffffff82169050919050565b6000610a9482610a69565b9050919050565b610aa481610a89565b8114610aaf57600080fd5b50565b600081359050610ac181610a9b565b92915050565b600067ffffffffffffffff82169050919050565b610ae481610ac7565b8114610aef57600080fd5b50565b600081359050610b0181610adb565b92915050565b600080fd5b600080fd5b6000601f19601f8301169050919050565b7f4e487b7100000000000000000000000000000000000000000000000000000000600052604160045260246000fd5b610b5a82610b11565b810181811067ffffffffffffffff82111715610b7957610b78610b22565b5b80604052505050565b6000610b8c61099a565b9050610b988282610b51565b919050565b600067ffffffffffffffff821115610bb857610bb7610b22565b5b610bc182610b11565b9050602081019050919050565b82818337600083830152505050565b6000610bf0610beb84610b9d565b610b82565b905082815260208101848484011115610c0c57610c0b610b0c565b5b610c17848285610bce565b509392505050565b600082601f830112610c3457610c33610b07565b5b8135610c44848260208601610bdd565b91505092915050565b60008060008060808587031215610c6757610c666109a4565b5b6000610c7587828801610ab2565b9450506020610c8687828801610af2565b935050604085013567ffffffffffffffff811115610ca757610ca66109a9565b5b610cb387828801610c1f565b925050606085013567ffffffffffffffff811115610cd457610cd36109a9565b5b610ce087828801610c1f565b91505092959194509250565b6000819050919050565b610cff81610cec565b82525050565b6000602082019050610d1a6000830184610cf6565b92915050565b600081519050919050565b600082825260208201905092915050565b60005b83811015610d5a578082015181840152602081019050610d3f565b60008484015250505050565b6000610d7182610d20565b610d7b8185610d2b565b9350610d8b818560208601610d3c565b610d9481610b11565b840191505092915050565b60006020820190508181036000830152610db98184610d66565b905092915050565b600060208284031215610dd757610dd66109a4565b5b6000610de584828501610ab2565b91505092915050565b600080fd5b600080fd5b60008083601f840112610e0e57610e0d610b07565b5b8235905067ffffffffffffffff811115610e2b57610e2a610dee565b5b602083019150836001820283011115610e4757610e46610df3565b5b9250929050565b60008060008060408587031215610e6857610e676109a4565b5b600085013567ffffffffffffffff811115610e8657610e856109a9565b5b610e9287828801610df8565b9450945050602085013567ffffffffffffffff811115610eb557610eb46109a9565b5b610ec187828801610df8565b925092505092959194509250565b600081519050919050565b600082825260208201905092915050565b6000610ef682610ecf565b610f008185610eda565b9350610f10818560208601610d3c565b610f1981610b11565b840191505092915050565b60006020820190508181036000830152610f3e8184610eeb565b905092915050565b7f4e487b7100000000000000000000000000000000000000000000000000000000600052602260045260246000fd5b60006002820490506001821680610f8d57607f821691505b602082108103610fa057610f9f610f46565b5b50919050565b6000610fb28385610eda565b9350610fbf838584610bce565b610fc883610b11565b840190509392505050565b60006040820190508181036000830152610fee818688610fa6565b90508181036020830152611003818486610fa6565b905095945050505050565b7f4e487b7100000000000000000000000000000000000000000000000000000000600052603260045260246000fd5b61104681610a89565b82525050565b600081519050919050565b600082825260208201905092915050565b6000819050602082019050919050565b600082825260208201905092915050565b600061109482610d20565b61109e8185611078565b93506110ae818560208601610d3c565b6110b781610b11565b840191505092915050565b60006110ce8383611089565b905092915050565b6000602082019050919050565b60006110ee8261104c565b6110f88185611057565b93508360208202850161110a85611068565b8060005b85811015611146578484038952815161112785826110c2565b9450611132836110d6565b925060208a0199505060018101905061110e565b50829750879550505050505092915050565b611161816109ae565b82525050565b600060a08201905061117c600083018861103d565b818103602083015261118e81876110e3565b905081810360408301526111a28186610eeb565b90506111b16060830185611158565b81810360808301526111c38184610eeb565b90509695505050505050565b7f5369676e617475726556657269666965723a20496e76616c696420736967617460008201527f7572650000000000000000000000000000000000000000000000000000000000602082015250565b600061122b602383610d2b565b9150611236826111cf565b604082019050919050565b6000602082019050818103600083015261125a8161121e565b9050919050565b600081905092915050565b7f1900000000000000000000000000000000000000000000000000000000000000600082015250565b60006112a2600283611261565b91506112ad8261126c565b600282019050919050565b60008160601b9050919050565b60006112d0826112b8565b9050919050565b60006112e2826112c5565b9050919050565b6112fa6112f582610a89565b6112d7565b82525050565b60008160c01b9050919050565b600061131882611300565b9050919050565b61133061132b82610ac7565b61130d565b82525050565b6000819050919050565b61135161134c82610cec565b611336565b82525050565b600061136282611295565b915061136e82876112e9565b60148201915061137e828661131f565b60088201915061138e8285611340565b60208201915061139e8284611340565b60208201915081905095945050505050565b6000806000606084860312156113c9576113c86109a4565b5b600084013567ffffffffffffffff8111156113e7576113e66109a9565b5b6113f386828701610c1f565b935050602061140486828701610af2565b925050604084013567ffffffffffffffff811115611425576114246109a9565b5b61143186828701610c1f565b9150509250925092565b7f5369676e617475726556657269666965723a205369676e61747572652065787060008201527f6972656400000000000000000000000000000000000000000000000000000000602082015250565b6000611497602483610d2b565b91506114a28261143b565b604082019050919050565b600060208201905081810360008301526114c68161148a565b9050919050565b7f4e487b7100000000000000000000000000000000000000000000000000000000600052602160045260246000fd5b6000819050919050565b61150f816114fc565b82525050565b600060208201905061152a6000830184611506565b92915050565b600060ff82169050919050565b61154681611530565b82525050565b60006080820190506115616000830187610cf6565b61156e602083018661153d565b61157b6040830185610cf6565b6115886060830184610cf6565b9594505050505056fea2646970667358221220fec9d7cef3bebf31d095720806a9415678c303fd16c1b1c94a3764a13a20298a64736f6c63430008170033","opcodes":"PUSH1 0x80 PUSH1 0x40 MSTORE CALLVALUE DUP1 ISZERO PUSH3 0x11 JUMPI PUSH1 0x0 DUP1 REVERT JUMPDEST POP PUSH1 0x40 MLOAD PUSH3 0x1E9C CODESIZE SUB DUP1 PUSH3 0x1E9C DUP4 CODECOPY DUP2 DUP2 ADD PUSH1 0x40 MSTORE DUP2 ADD SWAP1 PUSH3 0x37 SWAP2 SWAP1 PUSH3 0x3ED JUMP JUMPDEST DUP2 PUSH1 0x0 SWAP1 DUP2 PUSH3 0x48 SWAP2 SWAP1 PUSH3 0x6BD JUMP JUMPDEST POP PUSH1 0x0 JUMPDEST DUP2 MLOAD DUP2 LT ISZERO PUSH3 0xD8 JUMPI PUSH1 0x1 DUP1 PUSH1 0x0 DUP5 DUP5 DUP2 MLOAD DUP2 LT PUSH3 0x71 JUMPI PUSH3 0x70 PUSH3 0x7A4 JUMP JUMPDEST JUMPDEST PUSH1 0x20 MUL PUSH1 0x20 ADD ADD MLOAD PUSH20 0xFFFFFFFFFFFFFFFFFFFFFFFFFFFFFFFFFFFFFFFF AND PUSH20 0xFFFFFFFFFFFFFFFFFFFFFFFFFFFFFFFFFFFFFFFF AND DUP2 MSTORE PUSH1 0x20 ADD SWAP1 DUP2 MSTORE PUSH1 0x20 ADD PUSH1 0x0 KECCAK256 PUSH1 0x0 PUSH2 0x100 EXP DUP2 SLOAD DUP2 PUSH1 0xFF MUL NOT AND SWAP1 DUP4 ISZERO ISZERO MUL OR SWAP1 SSTORE POP DUP1 DUP1 PUSH1 0x1 ADD SWAP2 POP POP PUSH3 0x4C JUMP JUMPDEST POP PUSH32 0xAB0B9CC3A46B568CB08D985497CDE8AB7E18892D01F58DB7DC7F0D2AF859B2D7 DUP2 PUSH1 0x40 MLOAD PUSH3 0x10A SWAP2 SWAP1 PUSH3 0x8A1 JUMP JUMPDEST PUSH1 0x40 MLOAD DUP1 SWAP2 SUB SWAP1 LOG1 POP POP PUSH3 0x8C5 JUMP JUMPDEST PUSH1 0x0 PUSH1 0x40 MLOAD SWAP1 POP SWAP1 JUMP JUMPDEST PUSH1 0x0 DUP1 REVERT JUMPDEST PUSH1 0x0 DUP1 REVERT JUMPDEST PUSH1 0x0 DUP1 REVERT JUMPDEST PUSH1 0x0 DUP1 REVERT JUMPDEST PUSH1 0x0 PUSH1 0x1F NOT PUSH1 0x1F DUP4 ADD AND SWAP1 POP SWAP2 SWAP1 POP JUMP JUMPDEST PUSH32 0x4E487B7100000000000000000000000000000000000000000000000000000000 PUSH1 0x0 MSTORE PUSH1 0x41 PUSH1 0x4 MSTORE PUSH1 0x24 PUSH1 0x0 REVERT JUMPDEST PUSH3 0x183 DUP3 PUSH3 0x138 JUMP JUMPDEST DUP2 ADD DUP2 DUP2 LT PUSH8 0xFFFFFFFFFFFFFFFF DUP3 GT OR ISZERO PUSH3 0x1A5 JUMPI PUSH3 0x1A4 PUSH3 0x149 JUMP JUMPDEST JUMPDEST DUP1 PUSH1 0x40 MSTORE POP POP POP JUMP JUMPDEST PUSH1 0x0 PUSH3 0x1BA PUSH3 0x11A JUMP JUMPDEST SWAP1 POP PUSH3 0x1C8 DUP3 DUP3 PUSH3 0x178 JUMP JUMPDEST SWAP2 SWAP1 POP JUMP JUMPDEST PUSH1 0x0 PUSH8 0xFFFFFFFFFFFFFFFF DUP3 GT ISZERO PUSH3 0x1EB JUMPI PUSH3 0x1EA PUSH3 0x149 JUMP JUMPDEST JUMPDEST PUSH3 0x1F6 DUP3 PUSH3 0x138 JUMP JUMPDEST SWAP1 POP PUSH1 0x20 DUP2 ADD SWAP1 POP SWAP2 SWAP1 POP JUMP JUMPDEST PUSH1 0x0 JUMPDEST DUP4 DUP2 LT ISZERO PUSH3 0x223 JUMPI DUP1 DUP3 ADD MLOAD DUP2 DUP5 ADD MSTORE PUSH1 0x20 DUP2 ADD SWAP1 POP PUSH3 0x206 JUMP JUMPDEST PUSH1 0x0 DUP5 DUP5 ADD MSTORE POP POP POP POP JUMP JUMPDEST PUSH1 0x0 PUSH3 0x246 PUSH3 0x240 DUP5 PUSH3 0x1CD JUMP JUMPDEST PUSH3 0x1AE JUMP JUMPDEST SWAP1 POP DUP3 DUP2 MSTORE PUSH1 0x20 DUP2 ADD DUP5 DUP5 DUP5 ADD GT ISZERO PUSH3 0x265 JUMPI PUSH3 0x264 PUSH3 0x133 JUMP JUMPDEST JUMPDEST PUSH3 0x272 DUP5 DUP3 DUP6 PUSH3 0x203 JUMP JUMPDEST POP SWAP4 SWAP3 POP POP POP JUMP JUMPDEST PUSH1 0x0 DUP3 PUSH1 0x1F DUP4 ADD SLT PUSH3 0x292 JUMPI PUSH3 0x291 PUSH3 0x12E JUMP JUMPDEST JUMPDEST DUP2 MLOAD PUSH3 0x2A4 DUP5 DUP3 PUSH1 0x20 DUP7 ADD PUSH3 0x22F JUMP JUMPDEST SWAP2 POP POP SWAP3 SWAP2 POP POP JUMP JUMPDEST PUSH1 0x0 PUSH8 0xFFFFFFFFFFFFFFFF DUP3 GT ISZERO PUSH3 0x2CB JUMPI PUSH3 0x2CA PUSH3 0x149 JUMP JUMPDEST JUMPDEST PUSH1 0x20 DUP3 MUL SWAP1 POP PUSH1 0x20 DUP2 ADD SWAP1 POP SWAP2 SWAP1 POP JUMP JUMPDEST PUSH1 0x0 DUP1 REVERT JUMPDEST PUSH1 0x0 PUSH20 0xFFFFFFFFFFFFFFFFFFFFFFFFFFFFFFFFFFFFFFFF DUP3 AND SWAP1 POP SWAP2 SWAP1 POP JUMP JUMPDEST PUSH1 0x0 PUSH3 0x30E DUP3 PUSH3 0x2E1 JUMP JUMPDEST SWAP1 POP SWAP2 SWAP1 POP JUMP JUMPDEST PUSH3 0x320 DUP2 PUSH3 0x301 JUMP JUMPDEST DUP2 EQ PUSH3 0x32C JUMPI PUSH1 0x0 DUP1 REVERT JUMPDEST POP JUMP JUMPDEST PUSH1 0x0 DUP2 MLOAD SWAP1 POP PUSH3 0x340 DUP2 PUSH3 0x315 JUMP JUMPDEST SWAP3 SWAP2 POP POP JUMP JUMPDEST PUSH1 0x0 PUSH3 0x35D PUSH3 0x357 DUP5 PUSH3 0x2AD JUMP JUMPDEST PUSH3 0x1AE JUMP JUMPDEST SWAP1 POP DUP1 DUP4 DUP3 MSTORE PUSH1 0x20 DUP3 ADD SWAP1 POP PUSH1 0x20 DUP5 MUL DUP4 ADD DUP6 DUP2 GT ISZERO PUSH3 0x383 JUMPI PUSH3 0x382 PUSH3 0x2DC JUMP JUMPDEST JUMPDEST DUP4 JUMPDEST DUP2 DUP2 LT ISZERO PUSH3 0x3B0 JUMPI DUP1 PUSH3 0x39B DUP9 DUP3 PUSH3 0x32F JUMP JUMPDEST DUP5 MSTORE PUSH1 0x20 DUP5 ADD SWAP4 POP POP PUSH1 0x20 DUP2 ADD SWAP1 POP PUSH3 0x385 JUMP JUMPDEST POP POP POP SWAP4 SWAP3 POP POP POP JUMP JUMPDEST PUSH1 0x0 DUP3 PUSH1 0x1F DUP4 ADD SLT PUSH3 0x3D2 JUMPI PUSH3 0x3D1 PUSH3 0x12E JUMP JUMPDEST JUMPDEST DUP2 MLOAD PUSH3 0x3E4 DUP5 DUP3 PUSH1 0x20 DUP7 ADD PUSH3 0x346 JUMP JUMPDEST SWAP2 POP POP SWAP3 SWAP2 POP POP JUMP JUMPDEST PUSH1 0x0 DUP1 PUSH1 0x40 DUP4 DUP6 SUB SLT ISZERO PUSH3 0x407 JUMPI PUSH3 0x406 PUSH3 0x124 JUMP JUMPDEST JUMPDEST PUSH1 0x0 DUP4 ADD MLOAD PUSH8 0xFFFFFFFFFFFFFFFF DUP2 GT ISZERO PUSH3 0x428 JUMPI PUSH3 0x427 PUSH3 0x129 JUMP JUMPDEST JUMPDEST PUSH3 0x436 DUP6 DUP3 DUP7 ADD PUSH3 0x27A JUMP JUMPDEST SWAP3 POP POP PUSH1 0x20 DUP4 ADD MLOAD PUSH8 0xFFFFFFFFFFFFFFFF DUP2 GT ISZERO PUSH3 0x45A JUMPI PUSH3 0x459 PUSH3 0x129 JUMP JUMPDEST JUMPDEST PUSH3 0x468 DUP6 DUP3 DUP7 ADD PUSH3 0x3BA JUMP JUMPDEST SWAP2 POP POP SWAP3 POP SWAP3 SWAP1 POP JUMP JUMPDEST PUSH1 0x0 DUP2 MLOAD SWAP1 POP SWAP2 SWAP1 POP JUMP JUMPDEST PUSH32 0x4E487B7100000000000000000000000000000000000000000000000000000000 PUSH1 0x0 MSTORE PUSH1 0x22 PUSH1 0x4 MSTORE PUSH1 0x24 PUSH1 0x0 REVERT JUMPDEST PUSH1 0x0 PUSH1 0x2 DUP3 DIV SWAP1 POP PUSH1 0x1 DUP3 AND DUP1 PUSH3 0x4C5 JUMPI PUSH1 0x7F DUP3 AND SWAP2 POP JUMPDEST PUSH1 0x20 DUP3 LT DUP2 SUB PUSH3 0x4DB JUMPI PUSH3 0x4DA PUSH3 0x47D JUMP JUMPDEST JUMPDEST POP SWAP2 SWAP1 POP JUMP JUMPDEST PUSH1 0x0 DUP2 SWAP1 POP DUP2 PUSH1 0x0 MSTORE PUSH1 0x20 PUSH1 0x0 KECCAK256 SWAP1 POP SWAP2 SWAP1 POP JUMP JUMPDEST PUSH1 0x0 PUSH1 0x20 PUSH1 0x1F DUP4 ADD DIV SWAP1 POP SWAP2 SWAP1 POP JUMP JUMPDEST PUSH1 0x0 DUP3 DUP3 SHL SWAP1 POP SWAP3 SWAP2 POP POP JUMP JUMPDEST PUSH1 0x0 PUSH1 0x8 DUP4 MUL PUSH3 0x545 PUSH32 0xFFFFFFFFFFFFFFFFFFFFFFFFFFFFFFFFFFFFFFFFFFFFFFFFFFFFFFFFFFFFFFFF DUP3 PUSH3 0x506 JUMP JUMPDEST PUSH3 0x551 DUP7 DUP4 PUSH3 0x506 JUMP JUMPDEST SWAP6 POP DUP1 NOT DUP5 AND SWAP4 POP DUP1 DUP7 AND DUP5 OR SWAP3 POP POP POP SWAP4 SWAP3 POP POP POP JUMP JUMPDEST PUSH1 0x0 DUP2 SWAP1 POP SWAP2 SWAP1 POP JUMP JUMPDEST PUSH1 0x0 DUP2 SWAP1 POP SWAP2 SWAP1 POP JUMP JUMPDEST PUSH1 0x0 PUSH3 0x59E PUSH3 0x598 PUSH3 0x592 DUP5 PUSH3 0x569 JUMP JUMPDEST PUSH3 0x573 JUMP JUMPDEST PUSH3 0x569 JUMP JUMPDEST SWAP1 POP SWAP2 SWAP1 POP JUMP JUMPDEST PUSH1 0x0 DUP2 SWAP1 POP SWAP2 SWAP1 POP JUMP JUMPDEST PUSH3 0x5BA DUP4 PUSH3 0x57D JUMP JUMPDEST PUSH3 0x5D2 PUSH3 0x5C9 DUP3 PUSH3 0x5A5 JUMP JUMPDEST DUP5 DUP5 SLOAD PUSH3 0x513 JUMP JUMPDEST DUP3 SSTORE POP POP POP POP JUMP JUMPDEST PUSH1 0x0 SWAP1 JUMP JUMPDEST PUSH3 0x5E9 PUSH3 0x5DA JUMP JUMPDEST PUSH3 0x5F6 DUP2 DUP5 DUP5 PUSH3 0x5AF JUMP JUMPDEST POP POP POP JUMP JUMPDEST JUMPDEST DUP2 DUP2 LT ISZERO PUSH3 0x61E JUMPI PUSH3 0x612 PUSH1 0x0 DUP3 PUSH3 0x5DF JUMP JUMPDEST PUSH1 0x1 DUP2 ADD SWAP1 POP PUSH3 0x5FC JUMP JUMPDEST POP POP JUMP JUMPDEST PUSH1 0x1F DUP3 GT ISZERO PUSH3 0x66D JUMPI PUSH3 0x637 DUP2 PUSH3 0x4E1 JUMP JUMPDEST PUSH3 0x642 DUP5 PUSH3 0x4F6 JUMP JUMPDEST DUP2 ADD PUSH1 0x20 DUP6 LT ISZERO PUSH3 0x652 JUMPI DUP2 SWAP1 POP JUMPDEST PUSH3 0x66A PUSH3 0x661 DUP6 PUSH3 0x4F6 JUMP JUMPDEST DUP4 ADD DUP3 PUSH3 0x5FB JUMP JUMPDEST POP POP JUMPDEST POP POP POP JUMP JUMPDEST PUSH1 0x0 DUP3 DUP3 SHR SWAP1 POP SWAP3 SWAP2 POP POP JUMP JUMPDEST PUSH1 0x0 PUSH3 0x692 PUSH1 0x0 NOT DUP5 PUSH1 0x8 MUL PUSH3 0x672 JUMP JUMPDEST NOT DUP1 DUP4 AND SWAP2 POP POP SWAP3 SWAP2 POP POP JUMP JUMPDEST PUSH1 0x0 PUSH3 0x6AD DUP4 DUP4 PUSH3 0x67F JUMP JUMPDEST SWAP2 POP DUP3 PUSH1 0x2 MUL DUP3 OR SWAP1 POP SWAP3 SWAP2 POP POP JUMP JUMPDEST PUSH3 0x6C8 DUP3 PUSH3 0x472 JUMP JUMPDEST PUSH8 0xFFFFFFFFFFFFFFFF DUP2 GT ISZERO PUSH3 0x6E4 JUMPI PUSH3 0x6E3 PUSH3 0x149 JUMP JUMPDEST JUMPDEST PUSH3 0x6F0 DUP3 SLOAD PUSH3 0x4AC JUMP JUMPDEST PUSH3 0x6FD DUP3 DUP3 DUP6 PUSH3 0x622 JUMP JUMPDEST PUSH1 0x0 PUSH1 0x20 SWAP1 POP PUSH1 0x1F DUP4 GT PUSH1 0x1 DUP2 EQ PUSH3 0x735 JUMPI PUSH1 0x0 DUP5 ISZERO PUSH3 0x720 JUMPI DUP3 DUP8 ADD MLOAD SWAP1 POP JUMPDEST PUSH3 0x72C DUP6 DUP3 PUSH3 0x69F JUMP JUMPDEST DUP7 SSTORE POP PUSH3 0x79C JUMP JUMPDEST PUSH1 0x1F NOT DUP5 AND PUSH3 0x745 DUP7 PUSH3 0x4E1 JUMP JUMPDEST PUSH1 0x0 JUMPDEST DUP3 DUP2 LT ISZERO PUSH3 0x76F JUMPI DUP5 DUP10 ADD MLOAD DUP3 SSTORE PUSH1 0x1 DUP3 ADD SWAP2 POP PUSH1 0x20 DUP6 ADD SWAP5 POP PUSH1 0x20 DUP2 ADD SWAP1 POP PUSH3 0x748 JUMP JUMPDEST DUP7 DUP4 LT ISZERO PUSH3 0x78F JUMPI DUP5 DUP10 ADD MLOAD PUSH3 0x78B PUSH1 0x1F DUP10 AND DUP3 PUSH3 0x67F JUMP JUMPDEST DUP4 SSTORE POP JUMPDEST PUSH1 0x1 PUSH1 0x2 DUP9 MUL ADD DUP9 SSTORE POP POP POP JUMPDEST POP POP POP POP POP POP JUMP JUMPDEST PUSH32 0x4E487B7100000000000000000000000000000000000000000000000000000000 PUSH1 0x0 MSTORE PUSH1 0x32 PUSH1 0x4 MSTORE PUSH1 0x24 PUSH1 0x0 REVERT JUMPDEST PUSH1 0x0 DUP2 MLOAD SWAP1 POP SWAP2 SWAP1 POP JUMP JUMPDEST PUSH1 0x0 DUP3 DUP3 MSTORE PUSH1 0x20 DUP3 ADD SWAP1 POP SWAP3 SWAP2 POP POP JUMP JUMPDEST PUSH1 0x0 DUP2 SWAP1 POP PUSH1 0x20 DUP3 ADD SWAP1 POP SWAP2 SWAP1 POP JUMP JUMPDEST PUSH3 0x80A DUP2 PUSH3 0x301 JUMP JUMPDEST DUP3 MSTORE POP POP JUMP JUMPDEST PUSH1 0x0 PUSH3 0x81E DUP4 DUP4 PUSH3 0x7FF JUMP JUMPDEST PUSH1 0x20 DUP4 ADD SWAP1 POP SWAP3 SWAP2 POP POP JUMP JUMPDEST PUSH1 0x0 PUSH1 0x20 DUP3 ADD SWAP1 POP SWAP2 SWAP1 POP JUMP JUMPDEST PUSH1 0x0 PUSH3 0x844 DUP3 PUSH3 0x7D3 JUMP JUMPDEST PUSH3 0x850 DUP2 DUP6 PUSH3 0x7DE JUMP JUMPDEST SWAP4 POP PUSH3 0x85D DUP4 PUSH3 0x7EF JUMP JUMPDEST DUP1 PUSH1 0x0 JUMPDEST DUP4 DUP2 LT ISZERO PUSH3 0x894 JUMPI DUP2 MLOAD PUSH3 0x878 DUP9 DUP3 PUSH3 0x810 JUMP JUMPDEST SWAP8 POP PUSH3 0x885 DUP4 PUSH3 0x82A JUMP JUMPDEST SWAP3 POP POP PUSH1 0x1 DUP2 ADD SWAP1 POP PUSH3 0x861 JUMP JUMPDEST POP DUP6 SWAP4 POP POP POP POP SWAP3 SWAP2 POP POP JUMP JUMPDEST PUSH1 0x0 PUSH1 0x20 DUP3 ADD SWAP1 POP DUP2 DUP2 SUB PUSH1 0x0 DUP4 ADD MSTORE PUSH3 0x8BD DUP2 DUP5 PUSH3 0x837 JUMP JUMPDEST SWAP1 POP SWAP3 SWAP2 POP POP JUMP JUMPDEST PUSH2 0x15C7 DUP1 PUSH3 0x8D5 PUSH1 0x0 CODECOPY PUSH1 0x0 RETURN INVALID PUSH1 0x80 PUSH1 0x40 MSTORE CALLVALUE DUP1 ISZERO PUSH2 0x10 JUMPI PUSH1 0x0 DUP1 REVERT JUMPDEST POP PUSH1 0x4 CALLDATASIZE LT PUSH2 0x62 JUMPI PUSH1 0x0 CALLDATALOAD PUSH1 0xE0 SHR DUP1 PUSH4 0x1FFC9A7 EQ PUSH2 0x67 JUMPI DUP1 PUSH4 0x1DCFEA09 EQ PUSH2 0x97 JUMPI DUP1 PUSH4 0x5600F04F EQ PUSH2 0xC7 JUMPI DUP1 PUSH4 0x736C0D5B EQ PUSH2 0xE5 JUMPI DUP1 PUSH4 0x9061B923 EQ PUSH2 0x115 JUMPI DUP1 PUSH4 0xF4D4D2F8 EQ PUSH2 0x145 JUMPI JUMPDEST PUSH1 0x0 DUP1 REVERT JUMPDEST PUSH2 0x81 PUSH1 0x4 DUP1 CALLDATASIZE SUB DUP2 ADD SWAP1 PUSH2 0x7C SWAP2 SWAP1 PUSH2 0xA06 JUMP JUMPDEST PUSH2 0x175 JUMP JUMPDEST PUSH1 0x40 MLOAD PUSH2 0x8E SWAP2 SWAP1 PUSH2 0xA4E JUMP JUMPDEST PUSH1 0x40 MLOAD DUP1 SWAP2 SUB SWAP1 RETURN JUMPDEST PUSH2 0xB1 PUSH1 0x4 DUP1 CALLDATASIZE SUB DUP2 ADD SWAP1 PUSH2 0xAC SWAP2 SWAP1 PUSH2 0xC4D JUMP JUMPDEST PUSH2 0x1EF JUMP JUMPDEST PUSH1 0x40 MLOAD PUSH2 0xBE SWAP2 SWAP1 PUSH2 0xD05 JUMP JUMPDEST PUSH1 0x40 MLOAD DUP1 SWAP2 SUB SWAP1 RETURN JUMPDEST PUSH2 0xCF PUSH2 0x207 JUMP JUMPDEST PUSH1 0x40 MLOAD PUSH2 0xDC SWAP2 SWAP1 PUSH2 0xD9F JUMP JUMPDEST PUSH1 0x40 MLOAD DUP1 SWAP2 SUB SWAP1 RETURN JUMPDEST PUSH2 0xFF PUSH1 0x4 DUP1 CALLDATASIZE SUB DUP2 ADD SWAP1 PUSH2 0xFA SWAP2 SWAP1 PUSH2 0xDC1 JUMP JUMPDEST PUSH2 0x295 JUMP JUMPDEST PUSH1 0x40 MLOAD PUSH2 0x10C SWAP2 SWAP1 PUSH2 0xA4E JUMP JUMPDEST PUSH1 0x40 MLOAD DUP1 SWAP2 SUB SWAP1 RETURN JUMPDEST PUSH2 0x12F PUSH1 0x4 DUP1 CALLDATASIZE SUB DUP2 ADD SWAP1 PUSH2 0x12A SWAP2 SWAP1 PUSH2 0xE4E JUMP JUMPDEST PUSH2 0x2B5 JUMP JUMPDEST PUSH1 0x40 MLOAD PUSH2 0x13C SWAP2 SWAP1 PUSH2 0xF24 JUMP JUMPDEST PUSH1 0x40 MLOAD DUP1 SWAP2 SUB SWAP1 RETURN JUMPDEST PUSH2 0x15F PUSH1 0x4 DUP1 CALLDATASIZE SUB DUP2 ADD SWAP1 PUSH2 0x15A SWAP2 SWAP1 PUSH2 0xE4E JUMP JUMPDEST PUSH2 0x480 JUMP JUMPDEST PUSH1 0x40 MLOAD PUSH2 0x16C SWAP2 SWAP1 PUSH2 0xF24 JUMP JUMPDEST PUSH1 0x40 MLOAD DUP1 SWAP2 SUB SWAP1 RETURN JUMPDEST PUSH1 0x0 PUSH32 0x9061B92300000000000000000000000000000000000000000000000000000000 PUSH28 0xFFFFFFFFFFFFFFFFFFFFFFFFFFFFFFFFFFFFFFFFFFFFFFFFFFFFFFFF NOT AND DUP3 PUSH28 0xFFFFFFFFFFFFFFFFFFFFFFFFFFFFFFFFFFFFFFFFFFFFFFFFFFFFFFFF NOT AND EQ DUP1 PUSH2 0x1E8 JUMPI POP PUSH2 0x1E7 DUP3 PUSH2 0x52E JUMP JUMPDEST JUMPDEST SWAP1 POP SWAP2 SWAP1 POP JUMP JUMPDEST PUSH1 0x0 PUSH2 0x1FD DUP6 DUP6 DUP6 DUP6 PUSH2 0x598 JUMP JUMPDEST SWAP1 POP SWAP5 SWAP4 POP POP POP POP JUMP JUMPDEST PUSH1 0x0 DUP1 SLOAD PUSH2 0x214 SWAP1 PUSH2 0xF75 JUMP JUMPDEST DUP1 PUSH1 0x1F ADD PUSH1 0x20 DUP1 SWAP2 DIV MUL PUSH1 0x20 ADD PUSH1 0x40 MLOAD SWAP1 DUP2 ADD PUSH1 0x40 MSTORE DUP1 SWAP3 SWAP2 SWAP1 DUP2 DUP2 MSTORE PUSH1 0x20 ADD DUP3 DUP1 SLOAD PUSH2 0x240 SWAP1 PUSH2 0xF75 JUMP JUMPDEST DUP1 ISZERO PUSH2 0x28D JUMPI DUP1 PUSH1 0x1F LT PUSH2 0x262 JUMPI PUSH2 0x100 DUP1 DUP4 SLOAD DIV MUL DUP4 MSTORE SWAP2 PUSH1 0x20 ADD SWAP2 PUSH2 0x28D JUMP JUMPDEST DUP3 ADD SWAP2 SWAP1 PUSH1 0x0 MSTORE PUSH1 0x20 PUSH1 0x0 KECCAK256 SWAP1 JUMPDEST DUP2 SLOAD DUP2 MSTORE SWAP1 PUSH1 0x1 ADD SWAP1 PUSH1 0x20 ADD DUP1 DUP4 GT PUSH2 0x270 JUMPI DUP3 SWAP1 SUB PUSH1 0x1F AND DUP3 ADD SWAP2 JUMPDEST POP POP POP POP POP DUP2 JUMP JUMPDEST PUSH1 0x1 PUSH1 0x20 MSTORE DUP1 PUSH1 0x0 MSTORE PUSH1 0x40 PUSH1 0x0 KECCAK256 PUSH1 0x0 SWAP2 POP SLOAD SWAP1 PUSH2 0x100 EXP SWAP1 DIV PUSH1 0xFF AND DUP2 JUMP JUMPDEST PUSH1 0x60 PUSH1 0x0 PUSH4 0x9061B923 PUSH1 0xE0 SHL DUP7 DUP7 DUP7 DUP7 PUSH1 0x40 MLOAD PUSH1 0x24 ADD PUSH2 0x2D8 SWAP5 SWAP4 SWAP3 SWAP2 SWAP1 PUSH2 0xFD3 JUMP JUMPDEST PUSH1 0x40 MLOAD PUSH1 0x20 DUP2 DUP4 SUB SUB DUP2 MSTORE SWAP1 PUSH1 0x40 MSTORE SWAP1 PUSH28 0xFFFFFFFFFFFFFFFFFFFFFFFFFFFFFFFFFFFFFFFFFFFFFFFFFFFFFFFF NOT AND PUSH1 0x20 DUP3 ADD DUP1 MLOAD PUSH28 0xFFFFFFFFFFFFFFFFFFFFFFFFFFFFFFFFFFFFFFFFFFFFFFFFFFFFFFFF DUP4 DUP2 DUP4 AND OR DUP4 MSTORE POP POP POP POP SWAP1 POP PUSH1 0x0 PUSH1 0x1 PUSH8 0xFFFFFFFFFFFFFFFF DUP2 GT ISZERO PUSH2 0x354 JUMPI PUSH2 0x353 PUSH2 0xB22 JUMP JUMPDEST JUMPDEST PUSH1 0x40 MLOAD SWAP1 DUP1 DUP3 MSTORE DUP1 PUSH1 0x20 MUL PUSH1 0x20 ADD DUP3 ADD PUSH1 0x40 MSTORE DUP1 ISZERO PUSH2 0x387 JUMPI DUP2 PUSH1 0x20 ADD JUMPDEST PUSH1 0x60 DUP2 MSTORE PUSH1 0x20 ADD SWAP1 PUSH1 0x1 SWAP1 SUB SWAP1 DUP2 PUSH2 0x372 JUMPI SWAP1 POP JUMPDEST POP SWAP1 POP PUSH1 0x0 DUP1 SLOAD PUSH2 0x397 SWAP1 PUSH2 0xF75 JUMP JUMPDEST DUP1 PUSH1 0x1F ADD PUSH1 0x20 DUP1 SWAP2 DIV MUL PUSH1 0x20 ADD PUSH1 0x40 MLOAD SWAP1 DUP2 ADD PUSH1 0x40 MSTORE DUP1 SWAP3 SWAP2 SWAP1 DUP2 DUP2 MSTORE PUSH1 0x20 ADD DUP3 DUP1 SLOAD PUSH2 0x3C3 SWAP1 PUSH2 0xF75 JUMP JUMPDEST DUP1 ISZERO PUSH2 0x410 JUMPI DUP1 PUSH1 0x1F LT PUSH2 0x3E5 JUMPI PUSH2 0x100 DUP1 DUP4 SLOAD DIV MUL DUP4 MSTORE SWAP2 PUSH1 0x20 ADD SWAP2 PUSH2 0x410 JUMP JUMPDEST DUP3 ADD SWAP2 SWAP1 PUSH1 0x0 MSTORE PUSH1 0x20 PUSH1 0x0 KECCAK256 SWAP1 JUMPDEST DUP2 SLOAD DUP2 MSTORE SWAP1 PUSH1 0x1 ADD SWAP1 PUSH1 0x20 ADD DUP1 DUP4 GT PUSH2 0x3F3 JUMPI DUP3 SWAP1 SUB PUSH1 0x1F AND DUP3 ADD SWAP2 JUMPDEST POP POP POP POP POP DUP2 PUSH1 0x0 DUP2 MLOAD DUP2 LT PUSH2 0x429 JUMPI PUSH2 0x428 PUSH2 0x100E JUMP JUMPDEST JUMPDEST PUSH1 0x20 MUL PUSH1 0x20 ADD ADD DUP2 SWAP1 MSTORE POP ADDRESS DUP2 DUP4 PUSH4 0xF4D4D2F8 PUSH1 0xE0 SHL DUP6 PUSH1 0x40 MLOAD PUSH32 0x556F183000000000000000000000000000000000000000000000000000000000 DUP2 MSTORE PUSH1 0x4 ADD PUSH2 0x477 SWAP6 SWAP5 SWAP4 SWAP3 SWAP2 SWAP1 PUSH2 0x1167 JUMP JUMPDEST PUSH1 0x40 MLOAD DUP1 SWAP2 SUB SWAP1 REVERT JUMPDEST PUSH1 0x60 PUSH1 0x0 DUP1 PUSH2 0x491 DUP6 DUP6 DUP10 DUP10 PUSH2 0x5DF JUMP JUMPDEST SWAP2 POP SWAP2 POP PUSH1 0x1 PUSH1 0x0 DUP4 PUSH20 0xFFFFFFFFFFFFFFFFFFFFFFFFFFFFFFFFFFFFFFFF AND PUSH20 0xFFFFFFFFFFFFFFFFFFFFFFFFFFFFFFFFFFFFFFFF AND DUP2 MSTORE PUSH1 0x20 ADD SWAP1 DUP2 MSTORE PUSH1 0x20 ADD PUSH1 0x0 KECCAK256 PUSH1 0x0 SWAP1 SLOAD SWAP1 PUSH2 0x100 EXP SWAP1 DIV PUSH1 0xFF AND PUSH2 0x521 JUMPI PUSH1 0x40 MLOAD PUSH32 0x8C379A000000000000000000000000000000000000000000000000000000000 DUP2 MSTORE PUSH1 0x4 ADD PUSH2 0x518 SWAP1 PUSH2 0x1241 JUMP JUMPDEST PUSH1 0x40 MLOAD DUP1 SWAP2 SUB SWAP1 REVERT JUMPDEST DUP1 SWAP3 POP POP POP SWAP5 SWAP4 POP POP POP POP JUMP JUMPDEST PUSH1 0x0 PUSH32 0x1FFC9A700000000000000000000000000000000000000000000000000000000 PUSH28 0xFFFFFFFFFFFFFFFFFFFFFFFFFFFFFFFFFFFFFFFFFFFFFFFFFFFFFFFF NOT AND DUP3 PUSH28 0xFFFFFFFFFFFFFFFFFFFFFFFFFFFFFFFFFFFFFFFFFFFFFFFFFFFFFFFF NOT AND EQ SWAP1 POP SWAP2 SWAP1 POP JUMP JUMPDEST PUSH1 0x0 DUP5 DUP5 DUP5 DUP1 MLOAD SWAP1 PUSH1 0x20 ADD KECCAK256 DUP5 DUP1 MLOAD SWAP1 PUSH1 0x20 ADD KECCAK256 PUSH1 0x40 MLOAD PUSH1 0x20 ADD PUSH2 0x5BF SWAP5 SWAP4 SWAP3 SWAP2 SWAP1 PUSH2 0x1357 JUMP JUMPDEST PUSH1 0x40 MLOAD PUSH1 0x20 DUP2 DUP4 SUB SUB DUP2 MSTORE SWAP1 PUSH1 0x40 MSTORE DUP1 MLOAD SWAP1 PUSH1 0x20 ADD KECCAK256 SWAP1 POP SWAP5 SWAP4 POP POP POP POP JUMP JUMPDEST PUSH1 0x0 PUSH1 0x60 PUSH1 0x0 DUP1 PUSH1 0x0 DUP7 DUP7 DUP2 ADD SWAP1 PUSH2 0x5F7 SWAP2 SWAP1 PUSH2 0x13B0 JUMP JUMPDEST SWAP3 POP SWAP3 POP SWAP3 POP PUSH1 0x0 PUSH2 0x658 PUSH2 0x652 ADDRESS DUP6 DUP14 DUP14 DUP1 DUP1 PUSH1 0x1F ADD PUSH1 0x20 DUP1 SWAP2 DIV MUL PUSH1 0x20 ADD PUSH1 0x40 MLOAD SWAP1 DUP2 ADD PUSH1 0x40 MSTORE DUP1 SWAP4 SWAP3 SWAP2 SWAP1 DUP2 DUP2 MSTORE PUSH1 0x20 ADD DUP4 DUP4 DUP1 DUP3 DUP5 CALLDATACOPY PUSH1 0x0 DUP2 DUP5 ADD MSTORE PUSH1 0x1F NOT PUSH1 0x1F DUP3 ADD AND SWAP1 POP DUP1 DUP4 ADD SWAP3 POP POP POP POP POP POP POP DUP9 PUSH2 0x598 JUMP JUMPDEST DUP4 PUSH2 0x6BA JUMP JUMPDEST SWAP1 POP TIMESTAMP DUP4 PUSH8 0xFFFFFFFFFFFFFFFF AND LT ISZERO PUSH2 0x6A7 JUMPI PUSH1 0x40 MLOAD PUSH32 0x8C379A000000000000000000000000000000000000000000000000000000000 DUP2 MSTORE PUSH1 0x4 ADD PUSH2 0x69E SWAP1 PUSH2 0x14AD JUMP JUMPDEST PUSH1 0x40 MLOAD DUP1 SWAP2 SUB SWAP1 REVERT JUMPDEST DUP1 DUP5 SWAP6 POP SWAP6 POP POP POP POP POP SWAP5 POP SWAP5 SWAP3 POP POP POP JUMP JUMPDEST PUSH1 0x0 DUP1 PUSH1 0x0 DUP1 PUSH2 0x6CA DUP7 DUP7 PUSH2 0x6E6 JUMP JUMPDEST SWAP3 POP SWAP3 POP SWAP3 POP PUSH2 0x6DA DUP3 DUP3 PUSH2 0x742 JUMP JUMPDEST DUP3 SWAP4 POP POP POP POP SWAP3 SWAP2 POP POP JUMP JUMPDEST PUSH1 0x0 DUP1 PUSH1 0x0 PUSH1 0x41 DUP5 MLOAD SUB PUSH2 0x72B JUMPI PUSH1 0x0 DUP1 PUSH1 0x0 PUSH1 0x20 DUP8 ADD MLOAD SWAP3 POP PUSH1 0x40 DUP8 ADD MLOAD SWAP2 POP PUSH1 0x60 DUP8 ADD MLOAD PUSH1 0x0 BYTE SWAP1 POP PUSH2 0x71D DUP9 DUP3 DUP6 DUP6 PUSH2 0x8A6 JUMP JUMPDEST SWAP6 POP SWAP6 POP SWAP6 POP POP POP POP PUSH2 0x73B JUMP JUMPDEST PUSH1 0x0 PUSH1 0x2 DUP6 MLOAD PUSH1 0x0 SHL SWAP3 POP SWAP3 POP SWAP3 POP JUMPDEST SWAP3 POP SWAP3 POP SWAP3 JUMP JUMPDEST PUSH1 0x0 PUSH1 0x3 DUP2 GT ISZERO PUSH2 0x756 JUMPI PUSH2 0x755 PUSH2 0x14CD JUMP JUMPDEST JUMPDEST DUP3 PUSH1 0x3 DUP2 GT ISZERO PUSH2 0x769 JUMPI PUSH2 0x768 PUSH2 0x14CD JUMP JUMPDEST JUMPDEST SUB ISZERO PUSH2 0x8A2 JUMPI PUSH1 0x1 PUSH1 0x3 DUP2 GT ISZERO PUSH2 0x783 JUMPI PUSH2 0x782 PUSH2 0x14CD JUMP JUMPDEST JUMPDEST DUP3 PUSH1 0x3 DUP2 GT ISZERO PUSH2 0x796 JUMPI PUSH2 0x795 PUSH2 0x14CD JUMP JUMPDEST JUMPDEST SUB PUSH2 0x7CD JUMPI PUSH1 0x40 MLOAD PUSH32 0xF645EEDF00000000000000000000000000000000000000000000000000000000 DUP2 MSTORE PUSH1 0x4 ADD PUSH1 0x40 MLOAD DUP1 SWAP2 SUB SWAP1 REVERT JUMPDEST PUSH1 0x2 PUSH1 0x3 DUP2 GT ISZERO PUSH2 0x7E1 JUMPI PUSH2 0x7E0 PUSH2 0x14CD JUMP JUMPDEST JUMPDEST DUP3 PUSH1 0x3 DUP2 GT ISZERO PUSH2 0x7F4 JUMPI PUSH2 0x7F3 PUSH2 0x14CD JUMP JUMPDEST JUMPDEST SUB PUSH2 0x839 JUMPI DUP1 PUSH1 0x0 SHR PUSH1 0x40 MLOAD PUSH32 0xFCE698F700000000000000000000000000000000000000000000000000000000 DUP2 MSTORE PUSH1 0x4 ADD PUSH2 0x830 SWAP2 SWAP1 PUSH2 0x1515 JUMP JUMPDEST PUSH1 0x40 MLOAD DUP1 SWAP2 SUB SWAP1 REVERT JUMPDEST PUSH1 0x3 DUP1 DUP2 GT ISZERO PUSH2 0x84C JUMPI PUSH2 0x84B PUSH2 0x14CD JUMP JUMPDEST JUMPDEST DUP3 PUSH1 0x3 DUP2 GT ISZERO PUSH2 0x85F JUMPI PUSH2 0x85E PUSH2 0x14CD JUMP JUMPDEST JUMPDEST SUB PUSH2 0x8A1 JUMPI DUP1 PUSH1 0x40 MLOAD PUSH32 0xD78BCE0C00000000000000000000000000000000000000000000000000000000 DUP2 MSTORE PUSH1 0x4 ADD PUSH2 0x898 SWAP2 SWAP1 PUSH2 0xD05 JUMP JUMPDEST PUSH1 0x40 MLOAD DUP1 SWAP2 SUB SWAP1 REVERT JUMPDEST JUMPDEST POP POP JUMP JUMPDEST PUSH1 0x0 DUP1 PUSH1 0x0 PUSH32 0x7FFFFFFFFFFFFFFFFFFFFFFFFFFFFFFF5D576E7357A4501DDFE92F46681B20A0 DUP5 PUSH1 0x0 SHR GT ISZERO PUSH2 0x8E6 JUMPI PUSH1 0x0 PUSH1 0x3 DUP6 SWAP3 POP SWAP3 POP SWAP3 POP PUSH2 0x990 JUMP JUMPDEST PUSH1 0x0 PUSH1 0x1 DUP9 DUP9 DUP9 DUP9 PUSH1 0x40 MLOAD PUSH1 0x0 DUP2 MSTORE PUSH1 0x20 ADD PUSH1 0x40 MSTORE PUSH1 0x40 MLOAD PUSH2 0x90B SWAP5 SWAP4 SWAP3 SWAP2 SWAP1 PUSH2 0x154C JUMP JUMPDEST PUSH1 0x20 PUSH1 0x40 MLOAD PUSH1 0x20 DUP2 SUB SWAP1 DUP1 DUP5 SUB SWAP1 DUP6 GAS STATICCALL ISZERO DUP1 ISZERO PUSH2 0x92D JUMPI RETURNDATASIZE PUSH1 0x0 DUP1 RETURNDATACOPY RETURNDATASIZE PUSH1 0x0 REVERT JUMPDEST POP POP POP PUSH1 0x20 PUSH1 0x40 MLOAD SUB MLOAD SWAP1 POP PUSH1 0x0 PUSH20 0xFFFFFFFFFFFFFFFFFFFFFFFFFFFFFFFFFFFFFFFF AND DUP2 PUSH20 0xFFFFFFFFFFFFFFFFFFFFFFFFFFFFFFFFFFFFFFFF AND SUB PUSH2 0x981 JUMPI PUSH1 0x0 PUSH1 0x1 PUSH1 0x0 DUP1 SHL SWAP4 POP SWAP4 POP SWAP4 POP POP PUSH2 0x990 JUMP JUMPDEST DUP1 PUSH1 0x0 DUP1 PUSH1 0x0 SHL SWAP4 POP SWAP4 POP SWAP4 POP POP JUMPDEST SWAP5 POP SWAP5 POP SWAP5 SWAP2 POP POP JUMP JUMPDEST PUSH1 0x0 PUSH1 0x40 MLOAD SWAP1 POP SWAP1 JUMP JUMPDEST PUSH1 0x0 DUP1 REVERT JUMPDEST PUSH1 0x0 DUP1 REVERT JUMPDEST PUSH1 0x0 PUSH32 0xFFFFFFFF00000000000000000000000000000000000000000000000000000000 DUP3 AND SWAP1 POP SWAP2 SWAP1 POP JUMP JUMPDEST PUSH2 0x9E3 DUP2 PUSH2 0x9AE JUMP JUMPDEST DUP2 EQ PUSH2 0x9EE JUMPI PUSH1 0x0 DUP1 REVERT JUMPDEST POP JUMP JUMPDEST PUSH1 0x0 DUP2 CALLDATALOAD SWAP1 POP PUSH2 0xA00 DUP2 PUSH2 0x9DA JUMP JUMPDEST SWAP3 SWAP2 POP POP JUMP JUMPDEST PUSH1 0x0 PUSH1 0x20 DUP3 DUP5 SUB SLT ISZERO PUSH2 0xA1C JUMPI PUSH2 0xA1B PUSH2 0x9A4 JUMP JUMPDEST JUMPDEST PUSH1 0x0 PUSH2 0xA2A DUP5 DUP3 DUP6 ADD PUSH2 0x9F1 JUMP JUMPDEST SWAP2 POP POP SWAP3 SWAP2 POP POP JUMP JUMPDEST PUSH1 0x0 DUP2 ISZERO ISZERO SWAP1 POP SWAP2 SWAP1 POP JUMP JUMPDEST PUSH2 0xA48 DUP2 PUSH2 0xA33 JUMP JUMPDEST DUP3 MSTORE POP POP JUMP JUMPDEST PUSH1 0x0 PUSH1 0x20 DUP3 ADD SWAP1 POP PUSH2 0xA63 PUSH1 0x0 DUP4 ADD DUP5 PUSH2 0xA3F JUMP JUMPDEST SWAP3 SWAP2 POP POP JUMP JUMPDEST PUSH1 0x0 PUSH20 0xFFFFFFFFFFFFFFFFFFFFFFFFFFFFFFFFFFFFFFFF DUP3 AND SWAP1 POP SWAP2 SWAP1 POP JUMP JUMPDEST PUSH1 0x0 PUSH2 0xA94 DUP3 PUSH2 0xA69 JUMP JUMPDEST SWAP1 POP SWAP2 SWAP1 POP JUMP JUMPDEST PUSH2 0xAA4 DUP2 PUSH2 0xA89 JUMP JUMPDEST DUP2 EQ PUSH2 0xAAF JUMPI PUSH1 0x0 DUP1 REVERT JUMPDEST POP JUMP JUMPDEST PUSH1 0x0 DUP2 CALLDATALOAD SWAP1 POP PUSH2 0xAC1 DUP2 PUSH2 0xA9B JUMP JUMPDEST SWAP3 SWAP2 POP POP JUMP JUMPDEST PUSH1 0x0 PUSH8 0xFFFFFFFFFFFFFFFF DUP3 AND SWAP1 POP SWAP2 SWAP1 POP JUMP JUMPDEST PUSH2 0xAE4 DUP2 PUSH2 0xAC7 JUMP JUMPDEST DUP2 EQ PUSH2 0xAEF JUMPI PUSH1 0x0 DUP1 REVERT JUMPDEST POP JUMP JUMPDEST PUSH1 0x0 DUP2 CALLDATALOAD SWAP1 POP PUSH2 0xB01 DUP2 PUSH2 0xADB JUMP JUMPDEST SWAP3 SWAP2 POP POP JUMP JUMPDEST PUSH1 0x0 DUP1 REVERT JUMPDEST PUSH1 0x0 DUP1 REVERT JUMPDEST PUSH1 0x0 PUSH1 0x1F NOT PUSH1 0x1F DUP4 ADD AND SWAP1 POP SWAP2 SWAP1 POP JUMP JUMPDEST PUSH32 0x4E487B7100000000000000000000000000000000000000000000000000000000 PUSH1 0x0 MSTORE PUSH1 0x41 PUSH1 0x4 MSTORE PUSH1 0x24 PUSH1 0x0 REVERT JUMPDEST PUSH2 0xB5A DUP3 PUSH2 0xB11 JUMP JUMPDEST DUP2 ADD DUP2 DUP2 LT PUSH8 0xFFFFFFFFFFFFFFFF DUP3 GT OR ISZERO PUSH2 0xB79 JUMPI PUSH2 0xB78 PUSH2 0xB22 JUMP JUMPDEST JUMPDEST DUP1 PUSH1 0x40 MSTORE POP POP POP JUMP JUMPDEST PUSH1 0x0 PUSH2 0xB8C PUSH2 0x99A JUMP JUMPDEST SWAP1 POP PUSH2 0xB98 DUP3 DUP3 PUSH2 0xB51 JUMP JUMPDEST SWAP2 SWAP1 POP JUMP JUMPDEST PUSH1 0x0 PUSH8 0xFFFFFFFFFFFFFFFF DUP3 GT ISZERO PUSH2 0xBB8 JUMPI PUSH2 0xBB7 PUSH2 0xB22 JUMP JUMPDEST JUMPDEST PUSH2 0xBC1 DUP3 PUSH2 0xB11 JUMP JUMPDEST SWAP1 POP PUSH1 0x20 DUP2 ADD SWAP1 POP SWAP2 SWAP1 POP JUMP JUMPDEST DUP3 DUP2 DUP4 CALLDATACOPY PUSH1 0x0 DUP4 DUP4 ADD MSTORE POP POP POP JUMP JUMPDEST PUSH1 0x0 PUSH2 0xBF0 PUSH2 0xBEB DUP5 PUSH2 0xB9D JUMP JUMPDEST PUSH2 0xB82 JUMP JUMPDEST SWAP1 POP DUP3 DUP2 MSTORE PUSH1 0x20 DUP2 ADD DUP5 DUP5 DUP5 ADD GT ISZERO PUSH2 0xC0C JUMPI PUSH2 0xC0B PUSH2 0xB0C JUMP JUMPDEST JUMPDEST PUSH2 0xC17 DUP5 DUP3 DUP6 PUSH2 0xBCE JUMP JUMPDEST POP SWAP4 SWAP3 POP POP POP JUMP JUMPDEST PUSH1 0x0 DUP3 PUSH1 0x1F DUP4 ADD SLT PUSH2 0xC34 JUMPI PUSH2 0xC33 PUSH2 0xB07 JUMP JUMPDEST JUMPDEST DUP2 CALLDATALOAD PUSH2 0xC44 DUP5 DUP3 PUSH1 0x20 DUP7 ADD PUSH2 0xBDD JUMP JUMPDEST SWAP2 POP POP SWAP3 SWAP2 POP POP JUMP JUMPDEST PUSH1 0x0 DUP1 PUSH1 0x0 DUP1 PUSH1 0x80 DUP6 DUP8 SUB SLT ISZERO PUSH2 0xC67 JUMPI PUSH2 0xC66 PUSH2 0x9A4 JUMP JUMPDEST JUMPDEST PUSH1 0x0 PUSH2 0xC75 DUP8 DUP3 DUP9 ADD PUSH2 0xAB2 JUMP JUMPDEST SWAP5 POP POP PUSH1 0x20 PUSH2 0xC86 DUP8 DUP3 DUP9 ADD PUSH2 0xAF2 JUMP JUMPDEST SWAP4 POP POP PUSH1 0x40 DUP6 ADD CALLDATALOAD PUSH8 0xFFFFFFFFFFFFFFFF DUP2 GT ISZERO PUSH2 0xCA7 JUMPI PUSH2 0xCA6 PUSH2 0x9A9 JUMP JUMPDEST JUMPDEST PUSH2 0xCB3 DUP8 DUP3 DUP9 ADD PUSH2 0xC1F JUMP JUMPDEST SWAP3 POP POP PUSH1 0x60 DUP6 ADD CALLDATALOAD PUSH8 0xFFFFFFFFFFFFFFFF DUP2 GT ISZERO PUSH2 0xCD4 JUMPI PUSH2 0xCD3 PUSH2 0x9A9 JUMP JUMPDEST JUMPDEST PUSH2 0xCE0 DUP8 DUP3 DUP9 ADD PUSH2 0xC1F JUMP JUMPDEST SWAP2 POP POP SWAP3 SWAP6 SWAP2 SWAP5 POP SWAP3 POP JUMP JUMPDEST PUSH1 0x0 DUP2 SWAP1 POP SWAP2 SWAP1 POP JUMP JUMPDEST PUSH2 0xCFF DUP2 PUSH2 0xCEC JUMP JUMPDEST DUP3 MSTORE POP POP JUMP JUMPDEST PUSH1 0x0 PUSH1 0x20 DUP3 ADD SWAP1 POP PUSH2 0xD1A PUSH1 0x0 DUP4 ADD DUP5 PUSH2 0xCF6 JUMP JUMPDEST SWAP3 SWAP2 POP POP JUMP JUMPDEST PUSH1 0x0 DUP2 MLOAD SWAP1 POP SWAP2 SWAP1 POP JUMP JUMPDEST PUSH1 0x0 DUP3 DUP3 MSTORE PUSH1 0x20 DUP3 ADD SWAP1 POP SWAP3 SWAP2 POP POP JUMP JUMPDEST PUSH1 0x0 JUMPDEST DUP4 DUP2 LT ISZERO PUSH2 0xD5A JUMPI DUP1 DUP3 ADD MLOAD DUP2 DUP5 ADD MSTORE PUSH1 0x20 DUP2 ADD SWAP1 POP PUSH2 0xD3F JUMP JUMPDEST PUSH1 0x0 DUP5 DUP5 ADD MSTORE POP POP POP POP JUMP JUMPDEST PUSH1 0x0 PUSH2 0xD71 DUP3 PUSH2 0xD20 JUMP JUMPDEST PUSH2 0xD7B DUP2 DUP6 PUSH2 0xD2B JUMP JUMPDEST SWAP4 POP PUSH2 0xD8B DUP2 DUP6 PUSH1 0x20 DUP7 ADD PUSH2 0xD3C JUMP JUMPDEST PUSH2 0xD94 DUP2 PUSH2 0xB11 JUMP JUMPDEST DUP5 ADD SWAP2 POP POP SWAP3 SWAP2 POP POP JUMP JUMPDEST PUSH1 0x0 PUSH1 0x20 DUP3 ADD SWAP1 POP DUP2 DUP2 SUB PUSH1 0x0 DUP4 ADD MSTORE PUSH2 0xDB9 DUP2 DUP5 PUSH2 0xD66 JUMP JUMPDEST SWAP1 POP SWAP3 SWAP2 POP POP JUMP JUMPDEST PUSH1 0x0 PUSH1 0x20 DUP3 DUP5 SUB SLT ISZERO PUSH2 0xDD7 JUMPI PUSH2 0xDD6 PUSH2 0x9A4 JUMP JUMPDEST JUMPDEST PUSH1 0x0 PUSH2 0xDE5 DUP5 DUP3 DUP6 ADD PUSH2 0xAB2 JUMP JUMPDEST SWAP2 POP POP SWAP3 SWAP2 POP POP JUMP JUMPDEST PUSH1 0x0 DUP1 REVERT JUMPDEST PUSH1 0x0 DUP1 REVERT JUMPDEST PUSH1 0x0 DUP1 DUP4 PUSH1 0x1F DUP5 ADD SLT PUSH2 0xE0E JUMPI PUSH2 0xE0D PUSH2 0xB07 JUMP JUMPDEST JUMPDEST DUP3 CALLDATALOAD SWAP1 POP PUSH8 0xFFFFFFFFFFFFFFFF DUP2 GT ISZERO PUSH2 0xE2B JUMPI PUSH2 0xE2A PUSH2 0xDEE JUMP JUMPDEST JUMPDEST PUSH1 0x20 DUP4 ADD SWAP2 POP DUP4 PUSH1 0x1 DUP3 MUL DUP4 ADD GT ISZERO PUSH2 0xE47 JUMPI PUSH2 0xE46 PUSH2 0xDF3 JUMP JUMPDEST JUMPDEST SWAP3 POP SWAP3 SWAP1 POP JUMP JUMPDEST PUSH1 0x0 DUP1 PUSH1 0x0 DUP1 PUSH1 0x40 DUP6 DUP8 SUB SLT ISZERO PUSH2 0xE68 JUMPI PUSH2 0xE67 PUSH2 0x9A4 JUMP JUMPDEST JUMPDEST PUSH1 0x0 DUP6 ADD CALLDATALOAD PUSH8 0xFFFFFFFFFFFFFFFF DUP2 GT ISZERO PUSH2 0xE86 JUMPI PUSH2 0xE85 PUSH2 0x9A9 JUMP JUMPDEST JUMPDEST PUSH2 0xE92 DUP8 DUP3 DUP9 ADD PUSH2 0xDF8 JUMP JUMPDEST SWAP5 POP SWAP5 POP POP PUSH1 0x20 DUP6 ADD CALLDATALOAD PUSH8 0xFFFFFFFFFFFFFFFF DUP2 GT ISZERO PUSH2 0xEB5 JUMPI PUSH2 0xEB4 PUSH2 0x9A9 JUMP JUMPDEST JUMPDEST PUSH2 0xEC1 DUP8 DUP3 DUP9 ADD PUSH2 0xDF8 JUMP JUMPDEST SWAP3 POP SWAP3 POP POP SWAP3 SWAP6 SWAP2 SWAP5 POP SWAP3 POP JUMP JUMPDEST PUSH1 0x0 DUP2 MLOAD SWAP1 POP SWAP2 SWAP1 POP JUMP JUMPDEST PUSH1 0x0 DUP3 DUP3 MSTORE PUSH1 0x20 DUP3 ADD SWAP1 POP SWAP3 SWAP2 POP POP JUMP JUMPDEST PUSH1 0x0 PUSH2 0xEF6 DUP3 PUSH2 0xECF JUMP JUMPDEST PUSH2 0xF00 DUP2 DUP6 PUSH2 0xEDA JUMP JUMPDEST SWAP4 POP PUSH2 0xF10 DUP2 DUP6 PUSH1 0x20 DUP7 ADD PUSH2 0xD3C JUMP JUMPDEST PUSH2 0xF19 DUP2 PUSH2 0xB11 JUMP JUMPDEST DUP5 ADD SWAP2 POP POP SWAP3 SWAP2 POP POP JUMP JUMPDEST PUSH1 0x0 PUSH1 0x20 DUP3 ADD SWAP1 POP DUP2 DUP2 SUB PUSH1 0x0 DUP4 ADD MSTORE PUSH2 0xF3E DUP2 DUP5 PUSH2 0xEEB JUMP JUMPDEST SWAP1 POP SWAP3 SWAP2 POP POP JUMP JUMPDEST PUSH32 0x4E487B7100000000000000000000000000000000000000000000000000000000 PUSH1 0x0 MSTORE PUSH1 0x22 PUSH1 0x4 MSTORE PUSH1 0x24 PUSH1 0x0 REVERT JUMPDEST PUSH1 0x0 PUSH1 0x2 DUP3 DIV SWAP1 POP PUSH1 0x1 DUP3 AND DUP1 PUSH2 0xF8D JUMPI PUSH1 0x7F DUP3 AND SWAP2 POP JUMPDEST PUSH1 0x20 DUP3 LT DUP2 SUB PUSH2 0xFA0 JUMPI PUSH2 0xF9F PUSH2 0xF46 JUMP JUMPDEST JUMPDEST POP SWAP2 SWAP1 POP JUMP JUMPDEST PUSH1 0x0 PUSH2 0xFB2 DUP4 DUP6 PUSH2 0xEDA JUMP JUMPDEST SWAP4 POP PUSH2 0xFBF DUP4 DUP6 DUP5 PUSH2 0xBCE JUMP JUMPDEST PUSH2 0xFC8 DUP4 PUSH2 0xB11 JUMP JUMPDEST DUP5 ADD SWAP1 POP SWAP4 SWAP3 POP POP POP JUMP JUMPDEST PUSH1 0x0 PUSH1 0x40 DUP3 ADD SWAP1 POP DUP2 DUP2 SUB PUSH1 0x0 DUP4 ADD MSTORE PUSH2 0xFEE DUP2 DUP7 DUP9 PUSH2 0xFA6 JUMP JUMPDEST SWAP1 POP DUP2 DUP2 SUB PUSH1 0x20 DUP4 ADD MSTORE PUSH2 0x1003 DUP2 DUP5 DUP7 PUSH2 0xFA6 JUMP JUMPDEST SWAP1 POP SWAP6 SWAP5 POP POP POP POP POP JUMP JUMPDEST PUSH32 0x4E487B7100000000000000000000000000000000000000000000000000000000 PUSH1 0x0 MSTORE PUSH1 0x32 PUSH1 0x4 MSTORE PUSH1 0x24 PUSH1 0x0 REVERT JUMPDEST PUSH2 0x1046 DUP2 PUSH2 0xA89 JUMP JUMPDEST DUP3 MSTORE POP POP JUMP JUMPDEST PUSH1 0x0 DUP2 MLOAD SWAP1 POP SWAP2 SWAP1 POP JUMP JUMPDEST PUSH1 0x0 DUP3 DUP3 MSTORE PUSH1 0x20 DUP3 ADD SWAP1 POP SWAP3 SWAP2 POP POP JUMP JUMPDEST PUSH1 0x0 DUP2 SWAP1 POP PUSH1 0x20 DUP3 ADD SWAP1 POP SWAP2 SWAP1 POP JUMP JUMPDEST PUSH1 0x0 DUP3 DUP3 MSTORE PUSH1 0x20 DUP3 ADD SWAP1 POP SWAP3 SWAP2 POP POP JUMP JUMPDEST PUSH1 0x0 PUSH2 0x1094 DUP3 PUSH2 0xD20 JUMP JUMPDEST PUSH2 0x109E DUP2 DUP6 PUSH2 0x1078 JUMP JUMPDEST SWAP4 POP PUSH2 0x10AE DUP2 DUP6 PUSH1 0x20 DUP7 ADD PUSH2 0xD3C JUMP JUMPDEST PUSH2 0x10B7 DUP2 PUSH2 0xB11 JUMP JUMPDEST DUP5 ADD SWAP2 POP POP SWAP3 SWAP2 POP POP JUMP JUMPDEST PUSH1 0x0 PUSH2 0x10CE DUP4 DUP4 PUSH2 0x1089 JUMP JUMPDEST SWAP1 POP SWAP3 SWAP2 POP POP JUMP JUMPDEST PUSH1 0x0 PUSH1 0x20 DUP3 ADD SWAP1 POP SWAP2 SWAP1 POP JUMP JUMPDEST PUSH1 0x0 PUSH2 0x10EE DUP3 PUSH2 0x104C JUMP JUMPDEST PUSH2 0x10F8 DUP2 DUP6 PUSH2 0x1057 JUMP JUMPDEST SWAP4 POP DUP4 PUSH1 0x20 DUP3 MUL DUP6 ADD PUSH2 0x110A DUP6 PUSH2 0x1068 JUMP JUMPDEST DUP1 PUSH1 0x0 JUMPDEST DUP6 DUP2 LT ISZERO PUSH2 0x1146 JUMPI DUP5 DUP5 SUB DUP10 MSTORE DUP2 MLOAD PUSH2 0x1127 DUP6 DUP3 PUSH2 0x10C2 JUMP JUMPDEST SWAP5 POP PUSH2 0x1132 DUP4 PUSH2 0x10D6 JUMP JUMPDEST SWAP3 POP PUSH1 0x20 DUP11 ADD SWAP10 POP POP PUSH1 0x1 DUP2 ADD SWAP1 POP PUSH2 0x110E JUMP JUMPDEST POP DUP3 SWAP8 POP DUP8 SWAP6 POP POP POP POP POP POP SWAP3 SWAP2 POP POP JUMP JUMPDEST PUSH2 0x1161 DUP2 PUSH2 0x9AE JUMP JUMPDEST DUP3 MSTORE POP POP JUMP JUMPDEST PUSH1 0x0 PUSH1 0xA0 DUP3 ADD SWAP1 POP PUSH2 0x117C PUSH1 0x0 DUP4 ADD DUP9 PUSH2 0x103D JUMP JUMPDEST DUP2 DUP2 SUB PUSH1 0x20 DUP4 ADD MSTORE PUSH2 0x118E DUP2 DUP8 PUSH2 0x10E3 JUMP JUMPDEST SWAP1 POP DUP2 DUP2 SUB PUSH1 0x40 DUP4 ADD MSTORE PUSH2 0x11A2 DUP2 DUP7 PUSH2 0xEEB JUMP JUMPDEST SWAP1 POP PUSH2 0x11B1 PUSH1 0x60 DUP4 ADD DUP6 PUSH2 0x1158 JUMP JUMPDEST DUP2 DUP2 SUB PUSH1 0x80 DUP4 ADD MSTORE PUSH2 0x11C3 DUP2 DUP5 PUSH2 0xEEB JUMP JUMPDEST SWAP1 POP SWAP7 SWAP6 POP POP POP POP POP POP JUMP JUMPDEST PUSH32 0x5369676E617475726556657269666965723A20496E76616C6964207369676174 PUSH1 0x0 DUP3 ADD MSTORE PUSH32 0x7572650000000000000000000000000000000000000000000000000000000000 PUSH1 0x20 DUP3 ADD MSTORE POP JUMP JUMPDEST PUSH1 0x0 PUSH2 0x122B PUSH1 0x23 DUP4 PUSH2 0xD2B JUMP JUMPDEST SWAP2 POP PUSH2 0x1236 DUP3 PUSH2 0x11CF JUMP JUMPDEST PUSH1 0x40 DUP3 ADD SWAP1 POP SWAP2 SWAP1 POP JUMP JUMPDEST PUSH1 0x0 PUSH1 0x20 DUP3 ADD SWAP1 POP DUP2 DUP2 SUB PUSH1 0x0 DUP4 ADD MSTORE PUSH2 0x125A DUP2 PUSH2 0x121E JUMP JUMPDEST SWAP1 POP SWAP2 SWAP1 POP JUMP JUMPDEST PUSH1 0x0 DUP2 SWAP1 POP SWAP3 SWAP2 POP POP JUMP JUMPDEST PUSH32 0x1900000000000000000000000000000000000000000000000000000000000000 PUSH1 0x0 DUP3 ADD MSTORE POP JUMP JUMPDEST PUSH1 0x0 PUSH2 0x12A2 PUSH1 0x2 DUP4 PUSH2 0x1261 JUMP JUMPDEST SWAP2 POP PUSH2 0x12AD DUP3 PUSH2 0x126C JUMP JUMPDEST PUSH1 0x2 DUP3 ADD SWAP1 POP SWAP2 SWAP1 POP JUMP JUMPDEST PUSH1 0x0 DUP2 PUSH1 0x60 SHL SWAP1 POP SWAP2 SWAP1 POP JUMP JUMPDEST PUSH1 0x0 PUSH2 0x12D0 DUP3 PUSH2 0x12B8 JUMP JUMPDEST SWAP1 POP SWAP2 SWAP1 POP JUMP JUMPDEST PUSH1 0x0 PUSH2 0x12E2 DUP3 PUSH2 0x12C5 JUMP JUMPDEST SWAP1 POP SWAP2 SWAP1 POP JUMP JUMPDEST PUSH2 0x12FA PUSH2 0x12F5 DUP3 PUSH2 0xA89 JUMP JUMPDEST PUSH2 0x12D7 JUMP JUMPDEST DUP3 MSTORE POP POP JUMP JUMPDEST PUSH1 0x0 DUP2 PUSH1 0xC0 SHL SWAP1 POP SWAP2 SWAP1 POP JUMP JUMPDEST PUSH1 0x0 PUSH2 0x1318 DUP3 PUSH2 0x1300 JUMP JUMPDEST SWAP1 POP SWAP2 SWAP1 POP JUMP JUMPDEST PUSH2 0x1330 PUSH2 0x132B DUP3 PUSH2 0xAC7 JUMP JUMPDEST PUSH2 0x130D JUMP JUMPDEST DUP3 MSTORE POP POP JUMP JUMPDEST PUSH1 0x0 DUP2 SWAP1 POP SWAP2 SWAP1 POP JUMP JUMPDEST PUSH2 0x1351 PUSH2 0x134C DUP3 PUSH2 0xCEC JUMP JUMPDEST PUSH2 0x1336 JUMP JUMPDEST DUP3 MSTORE POP POP JUMP JUMPDEST PUSH1 0x0 PUSH2 0x1362 DUP3 PUSH2 0x1295 JUMP JUMPDEST SWAP2 POP PUSH2 0x136E DUP3 DUP8 PUSH2 0x12E9 JUMP JUMPDEST PUSH1 0x14 DUP3 ADD SWAP2 POP PUSH2 0x137E DUP3 DUP7 PUSH2 0x131F JUMP JUMPDEST PUSH1 0x8 DUP3 ADD SWAP2 POP PUSH2 0x138E DUP3 DUP6 PUSH2 0x1340 JUMP JUMPDEST PUSH1 0x20 DUP3 ADD SWAP2 POP PUSH2 0x139E DUP3 DUP5 PUSH2 0x1340 JUMP JUMPDEST PUSH1 0x20 DUP3 ADD SWAP2 POP DUP2 SWAP1 POP SWAP6 SWAP5 POP POP POP POP POP JUMP JUMPDEST PUSH1 0x0 DUP1 PUSH1 0x0 PUSH1 0x60 DUP5 DUP7 SUB SLT ISZERO PUSH2 0x13C9 JUMPI PUSH2 0x13C8 PUSH2 0x9A4 JUMP JUMPDEST JUMPDEST PUSH1 0x0 DUP5 ADD CALLDATALOAD PUSH8 0xFFFFFFFFFFFFFFFF DUP2 GT ISZERO PUSH2 0x13E7 JUMPI PUSH2 0x13E6 PUSH2 0x9A9 JUMP JUMPDEST JUMPDEST PUSH2 0x13F3 DUP7 DUP3 DUP8 ADD PUSH2 0xC1F JUMP JUMPDEST SWAP4 POP POP PUSH1 0x20 PUSH2 0x1404 DUP7 DUP3 DUP8 ADD PUSH2 0xAF2 JUMP JUMPDEST SWAP3 POP POP PUSH1 0x40 DUP5 ADD CALLDATALOAD PUSH8 0xFFFFFFFFFFFFFFFF DUP2 GT ISZERO PUSH2 0x1425 JUMPI PUSH2 0x1424 PUSH2 0x9A9 JUMP JUMPDEST JUMPDEST PUSH2 0x1431 DUP7 DUP3 DUP8 ADD PUSH2 0xC1F JUMP JUMPDEST SWAP2 POP POP SWAP3 POP SWAP3 POP SWAP3 JUMP JUMPDEST PUSH32 0x5369676E617475726556657269666965723A205369676E617475726520657870 PUSH1 0x0 DUP3 ADD MSTORE PUSH32 0x6972656400000000000000000000000000000000000000000000000000000000 PUSH1 0x20 DUP3 ADD MSTORE POP JUMP JUMPDEST PUSH1 0x0 PUSH2 0x1497 PUSH1 0x24 DUP4 PUSH2 0xD2B JUMP JUMPDEST SWAP2 POP PUSH2 0x14A2 DUP3 PUSH2 0x143B JUMP JUMPDEST PUSH1 0x40 DUP3 ADD SWAP1 POP SWAP2 SWAP1 POP JUMP JUMPDEST PUSH1 0x0 PUSH1 0x20 DUP3 ADD SWAP1 POP DUP2 DUP2 SUB PUSH1 0x0 DUP4 ADD MSTORE PUSH2 0x14C6 DUP2 PUSH2 0x148A JUMP JUMPDEST SWAP1 POP SWAP2 SWAP1 POP JUMP JUMPDEST PUSH32 0x4E487B7100000000000000000000000000000000000000000000000000000000 PUSH1 0x0 MSTORE PUSH1 0x21 PUSH1 0x4 MSTORE PUSH1 0x24 PUSH1 0x0 REVERT JUMPDEST PUSH1 0x0 DUP2 SWAP1 POP SWAP2 SWAP1 POP JUMP JUMPDEST PUSH2 0x150F DUP2 PUSH2 0x14FC JUMP JUMPDEST DUP3 MSTORE POP POP JUMP JUMPDEST PUSH1 0x0 PUSH1 0x20 DUP3 ADD SWAP1 POP PUSH2 0x152A PUSH1 0x0 DUP4 ADD DUP5 PUSH2 0x1506 JUMP JUMPDEST SWAP3 SWAP2 POP POP JUMP JUMPDEST PUSH1 0x0 PUSH1 0xFF DUP3 AND SWAP1 POP SWAP2 SWAP1 POP JUMP JUMPDEST PUSH2 0x1546 DUP2 PUSH2 0x1530 JUMP JUMPDEST DUP3 MSTORE POP POP JUMP JUMPDEST PUSH1 0x0 PUSH1 0x80 DUP3 ADD SWAP1 POP PUSH2 0x1561 PUSH1 0x0 DUP4 ADD DUP8 PUSH2 0xCF6 JUMP JUMPDEST PUSH2 0x156E PUSH1 0x20 DUP4 ADD DUP7 PUSH2 0x153D JUMP JUMPDEST PUSH2 0x157B PUSH1 0x40 DUP4 ADD DUP6 PUSH2 0xCF6 JUMP JUMPDEST PUSH2 0x1588 PUSH1 0x60 DUP4 ADD DUP5 PUSH2 0xCF6 JUMP JUMPDEST SWAP6 SWAP5 POP POP POP POP POP JUMP INVALID LOG2 PUSH5 0x6970667358 0x22 SLT KECCAK256 INVALID 0xC9 0xD7 0xCE RETURN 0xBE 0xBF BALANCE 0xD0 SWAP6 PUSH19 0x806A9415678C303FD16C1B1C94A3764A13A20 0x29 DUP11 PUSH5 0x736F6C6343 STOP ADDMOD OR STOP CALLER "},"gasEstimates":{"creation":{"codeDepositCost":"1115000","executionCost":"infinite","totalCost":"infinite"},"external":{"makeSignatureHash(address,uint64,bytes,bytes)":"infinite","resolve(bytes,bytes)":"infinite","resolveWithProof(bytes,bytes)":"infinite","signers(address)":"2889","supportsInterface(bytes4)":"705","url()":"infinite"}},"methodIdentifiers":{"makeSignatureHash(address,uint64,bytes,bytes)":"1dcfea09","resolve(bytes,bytes)":"9061b923","resolveWithProof(bytes,bytes)":"f4d4d2f8","signers(address)":"736c0d5b","supportsInterface(bytes4)":"01ffc9a7","url()":"5600f04f"}},"storageLayout":{"storage":[{"astId":982,"contract":"contracts/OffchainResolver.sol:OffchainResolver","label":"url","offset":0,"slot":"0","type":"t_string_storage"},{"astId":986,"contract":"contracts/OffchainResolver.sol:OffchainResolver","label":"signers","offset":0,"slot":"1","type":"t_mapping(t_address,t_bool)"}],"types":{"t_address":{"encoding":"inplace","label":"address","numberOfBytes":"20"},"t_bool":{"encoding":"inplace","label":"bool","numberOfBytes":"1"},"t_mapping(t_address,t_bool)":{"encoding":"mapping","key":"t_address","label":"mapping(address => bool)","numberOfBytes":"32","value":"t_bool"},"t_string_storage":{"encoding":"bytes","label":"string","numberOfBytes":"32"}}},"userdoc":{"kind":"user","methods":{"resolve(bytes,bytes)":{"notice":"Resolves a name, as specified by ENSIP 10."},"resolveWithProof(bytes,bytes)":{"notice":"Callback used by CCIP read compatible clients to verify and parse the response."}},"notice":"Implements an ENS resolver that directs all queries to a CCIP read gateway. Callers must implement EIP 3668 and ENSIP 10.","version":1}}}}